:020000040000FA
:1000000008C20720E1000000E9000000EB0000004A
:10001000ED000000EF000000F10000000000000013
:10002000000000000000000000000000F3000000DD
:10003000F500000000000000F7000000F9000000DB
:10004000FB000000FB000000FB000000FB000000C4
:10005000FB000000FB000000FB000000FB000000B4
:10006000FB000000FB000000FB000000FB000000A4
:10007000FB000000FB000000FB000000FB00000094
:10008000FB000000FB000000FB000000FB00000084
:10009000FB000000FB000000FB000000FB00000074
:1000A000FB000000FB000000FB000000FB00000064
:1000B000FB000000FB000000FB000000FB00000054
:1000C000FB000000FB000000FB000000DFF80CD08C
:1000D00000F018F8004800473505000008C2072066
:1000E0000648804706480047FEE7FEE7FEE7FEE7D2
:1000F000FEE7FEE7FEE7FEE7FEE7FEE72D03000072
:10010000CD000000064C074D06E0E06840F001031A
:1001100094E8070098471034AC42F6D3FFF7DAFFB3
:100120003805000068050000F0B58BB006460F46A4
:1001300014461D46352001900296039706A901A892
:10014000074A126890470698082805D10CB107980D
:1001500020600DB1089828600698C0B20BB0F0BDC1
:1001600000C0072070B58AB004460E4615463820F8
:10017000009001940296039505A96846034A126807
:1001800090470598C0B20AB070BD000000C00720BB
:100190002DE9F0418AB004460D461646204600F08F
:1001A00047F880464146404600F04AF807461FB1EE
:1001B00038460AB0BDE8F0813320009001940295E2
:1001C0000396074800684FF47A71B0FBF1F104918F
:1001D00005A96846034A126890470598C0B2E8E747
:1001E00004C0072000C0072070B58AB004460E4640
:1001F0003146204600F024F8054615B128460AB0DD
:1002000070BD3420009001940296074800684FF4B6
:100210007A71B0FBF1F1039105A96846034A1268AF
:1002200090470598C0B2EAE704C0072000C0072045
:100230000146080B102802D30E2202EBD0007047B3
:1002400030B58BB004460D463220019002940395E0
:1002500006A901A8034A126890470698C0B20BB0DD
:1002600030BD000000C0072030B58BB004460D46FD
:100270003720019006A901A8074A126890470698FE
:1002800030B914B10798000A20700DB10798287092
:100290000698C0B20BB030BD00C0072010B58AB0C0
:1002A00004463A20009005A968460B4A1268904718
:1002B000059860B95CB1002000BF05E006A951F8BF
:1002C000201044F82010401C0428F7D300BF0598E4
:1002D000C0B20AB010BD000000C0072002E008C88C
:1002E000121F08C1002AFAD170477047002001E0B0
:1002F00001C1121F002AFBD170470000FFFFFFFF62
:1003000010B58AB004463620009005A96846064A12
:1003100012689047059810B90CB1069820600598AE
:10032000C0B20AB010BD000000C0072020204B4919
:1003300008604B48D0F8A00100F0200030B100BFA9
:100340004648006800F040000028F9D003204349E7
:100350009C39086000204249C1F8A8013F490C318E
:10036000086001203D49943908603E483C49843189
:100370000860AA203A498C310860552008600120A5
:10038000374980310860AA2035498C3108605520F2
:100390003349C1F88C0000BF31488830006800F054
:1003A00080600028F8D003202D4980310860AA2001
:1003B0002B49C1F88C00552029498C31086000BFB9
:1003C00027488830006800F04070B0F1407FF7D1D6
:1003D00023202349A4310860AA202149C1F8AC0098
:1003E00055201F49AC31086001201D49A03108602B
:1003F000AA201B49AC31086055201949C1F8AC004E
:1004000000BF1748A830006800F480600028F8D0CA
:1004100003201349A0310860AA201149C1F8AC009B
:1004200055200F49AC31086000BF0D48A830006866
:1004300000F44070B0F5407FF7D10B480849C43153
:10044000086000200649C1F8C8010846006820F489
:10045000704040F48040086070470000A0C10F4029
:1004600000C00F4063000500DE87280486B000242A
:1004700002E02F490C55641CB4F5806FF9D34FF49A
:100480000040FFF7D5FE07464FF41040FFF7D0FEBF
:10049000804602A8FFF734FF05460DB100BFFEE716
:1004A000694601A8FFF7E0FE05460DB100BFFEE773
:1004B00002A8FFF7F3FE05460DB100BFFEE7414677
:1004C0003846FFF791FE05460DB100BFFEE703ABCE
:1004D00002AA41463846FFF727FE05460DB100BF88
:1004E000FEE700240DE04FF4004000EB84264211AB
:1004F0000F493046FFF74CFE05460DB100BFFEE741
:10050000641C042CEFD300240DE04FF4004000EBFA
:100510008426421106493046FFF724FE05460DB1F8
:1005200000BFFEE7641C042CEFD300BFFEE7000011
:1005300000000010FFF79AFF6805000000C00720C8
:1005400008000000DC020000680500000000001048
:1005500000040000EC0200007005000008C0072045
:1005600000020000EC020000F11FFF1F00E1F50592
:04000005000000CD2A
:00000001FF
